{
  "address": "0xc40448C005890B102cA95f629ADf4360080Aebbe",
  "abi": [
    {
      "inputs": [
        {
          "internalType": "address",
          "name": "token_",
          "type": "address"
        },
        {
          "internalType": "bytes32",
          "name": "merkleRoot_",
          "type": "bytes32"
        },
        {
          "internalType": "address",
          "name": "treasury_",
          "type": "address"
        }
      ],
      "stateMutability": "nonpayable",
      "type": "constructor"
    },
    {
      "anonymous": false,
      "inputs": [
        {
          "indexed": false,
          "internalType": "uint256",
          "name": "index",
          "type": "uint256"
        },
        {
          "indexed": false,
          "internalType": "address",
          "name": "account",
          "type": "address"
        },
        {
          "indexed": false,
          "internalType": "uint256",
          "name": "amount",
          "type": "uint256"
        }
      ],
      "name": "Claimed",
      "type": "event"
    },
    {
      "inputs": [
        {
          "internalType": "uint256",
          "name": "index",
          "type": "uint256"
        },
        {
          "internalType": "address",
          "name": "account",
          "type": "address"
        },
        {
          "internalType": "uint256",
          "name": "amount",
          "type": "uint256"
        },
        {
          "internalType": "bytes32[]",
          "name": "merkleProof",
          "type": "bytes32[]"
        }
      ],
      "name": "claim",
      "outputs": [],
      "stateMutability": "nonpayable",
      "type": "function"
    },
    {
      "inputs": [],
      "name": "endAirdrop",
      "outputs": [],
      "stateMutability": "nonpayable",
      "type": "function"
    },
    {
      "inputs": [
        {
          "internalType": "uint256",
          "name": "index",
          "type": "uint256"
        }
      ],
      "name": "isClaimed",
      "outputs": [
        {
          "internalType": "bool",
          "name": "",
          "type": "bool"
        }
      ],
      "stateMutability": "view",
      "type": "function"
    },
    {
      "inputs": [],
      "name": "merkleRoot",
      "outputs": [
        {
          "internalType": "bytes32",
          "name": "",
          "type": "bytes32"
        }
      ],
      "stateMutability": "view",
      "type": "function"
    },
    {
      "inputs": [],
      "name": "timeout",
      "outputs": [
        {
          "internalType": "uint256",
          "name": "",
          "type": "uint256"
        }
      ],
      "stateMutability": "view",
      "type": "function"
    },
    {
      "inputs": [],
      "name": "token",
      "outputs": [
        {
          "internalType": "address",
          "name": "",
          "type": "address"
        }
      ],
      "stateMutability": "view",
      "type": "function"
    },
    {
      "inputs": [],
      "name": "treasury",
      "outputs": [
        {
          "internalType": "address",
          "name": "",
          "type": "address"
        }
      ],
      "stateMutability": "view",
      "type": "function"
    }
  ],
  "transactionHash": "0x94e523700b00ae09a3dcb2cf272e722a98f7ce4884b14645131f8bb30f8da346",
  "args": [
    "0xAa715DbD2ED909B7B7727dC864F3B78276D14A19",
    "0xf3e2ea4c235de14ee793f105dbb1f54a4be38543c2996f3ea8a163363961d109",
    "0xa54074b2cc0e96a43048d4a68472F7F046aC0DA8"
  ],
  "solcInputHash": "27f1878dc63d45e29ee2732d4e540794",
  "bytecode": "0x61010060405234801561001157600080fd5b50604051610c0f380380610c0f83398101604081905261003091610084565b6001600160601b0319606084811b821660805260c084905282901b1660a05261005c426224ea006100c0565b60e052506100e6915050565b80516001600160a01b038116811461007f57600080fd5b919050565b60008060006060848603121561009957600080fd5b6100a284610068565b9250602084015191506100b760408501610068565b90509250925092565b600082198211156100e157634e487b7160e01b600052601160045260246000fd5b500190565b60805160601c60a05160601c60c05160e051610ac9610146600039600081816101220152610538015260008181609c01526102c401526000818160d60152610651015260008181610174015281816103d001526106130152610ac96000f3fe608060405234801561001057600080fd5b506004361061007d5760003560e01c806370dea79a1161005b57806370dea79a1461011d578063726b5bad146101445780639e34070f1461014c578063fc0c546a1461016f57600080fd5b80632e7ba6ef146100825780632eb4a7ab1461009757806361d027b3146100d1575b600080fd5b6100956100903660046108fb565b610196565b005b6100be7f000000000000000000000000000000000000000000000000000000000000000081565b6040519081526020015b60405180910390f35b6100f87f000000000000000000000000000000000000000000000000000000000000000081565b60405173ffffffffffffffffffffffffffffffffffffffff90911681526020016100c8565b6100be7f000000000000000000000000000000000000000000000000000000000000000081565b610095610536565b61015f61015a3660046108c9565b610772565b60405190151581526020016100c8565b6100f87f000000000000000000000000000000000000000000000000000000000000000081565b61019f85610772565b15610231576040517f08c379a000000000000000000000000000000000000000000000000000000000815260206004820152602860248201527f4d65726b6c654469737472696275746f723a2044726f7020616c72656164792060448201527f636c61696d65642e00000000000000000000000000000000000000000000000060648201526084015b60405180910390fd5b60408051602081018790527fffffffffffffffffffffffffffffffffffffffff000000000000000000000000606087901b1691810191909152605481018490526000906074016040516020818303038152906040528051906020012090506102ef8383808060200260200160405190810160405280939291908181526020018383602002808284376000920191909152507f000000000000000000000000000000000000000000000000000000000000000092508591506107b39050565b61037b576040517f08c379a000000000000000000000000000000000000000000000000000000000815260206004820152602160248201527f4d65726b6c654469737472696275746f723a20496e76616c69642070726f6f6660448201527f2e000000000000000000000000000000000000000000000000000000000000006064820152608401610228565b61038486610862565b6040517fa9059cbb00000000000000000000000000000000000000000000000000000000815273ffffffffffffffffffffffffffffffffffffffff8681166004830152602482018690527f0000000000000000000000000000000000000000000000000000000000000000169063a9059cbb90604401602060405180830381600087803b15801561041457600080fd5b505af1158015610428573d6000803e3d6000fd5b505050506040513d601f19601f8201168201806040525081019061044c91906108a0565b6104d8576040517f08c379a000000000000000000000000000000000000000000000000000000000815260206004820152602360248201527f4d65726b6c654469737472696275746f723a205472616e73666572206661696c60448201527f65642e00000000000000000000000000000000000000000000000000000000006064820152608401610228565b6040805187815273ffffffffffffffffffffffffffffffffffffffff871660208201529081018590527f4ec90e965519d92681267467f775ada5bd214aa92c0dc93d90a5e880ce9ed0269060600160405180910390a1505050505050565b7f000000000000000000000000000000000000000000000000000000000000000042116105e5576040517f08c379a000000000000000000000000000000000000000000000000000000000815260206004820152602960248201527f4d65726b6c654469737472696275746f723a2054696d656f7574206861736e2760448201527f74206578706972656400000000000000000000000000000000000000000000006064820152608401610228565b6040517f70a082310000000000000000000000000000000000000000000000000000000081523060048201527f000000000000000000000000000000000000000000000000000000000000000073ffffffffffffffffffffffffffffffffffffffff169063a9059cbb907f00000000000000000000000000000000000000000000000000000000000000009083906370a082319060240160206040518083038186803b15801561069457600080fd5b505afa1580156106a8573d6000803e3d6000fd5b505050506040513d601f19601f820116820180604052508101906106cc91906108e2565b6040517fffffffff0000000000000000000000000000000000000000000000000000000060e085901b16815273ffffffffffffffffffffffffffffffffffffffff90921660048301526024820152604401602060405180830381600087803b15801561073757600080fd5b505af115801561074b573d6000803e3d6000fd5b505050506040513d601f19601f8201168201806040525081019061076f91906108a0565b50565b600080610781610100846109ad565b9050600061079161010085610a21565b60009283526020839052604090922054600190921b9182169091149392505050565b600081815b85518110156108575760008682815181106107d5576107d5610a64565b60200260200101519050808311610817576040805160208101859052908101829052606001604051602081830303815290604052805190602001209250610844565b60408051602081018390529081018490526060016040516020818303038152906040528051906020012092505b508061084f816109c1565b9150506107b8565b509092149392505050565b6000610870610100836109ad565b9050600061088061010084610a21565b6000928352602083905260409092208054600190931b9092179091555050565b6000602082840312156108b257600080fd5b815180151581146108c257600080fd5b9392505050565b6000602082840312156108db57600080fd5b5035919050565b6000602082840312156108f457600080fd5b5051919050565b60008060008060006080868803121561091357600080fd5b85359450602086013573ffffffffffffffffffffffffffffffffffffffff8116811461093e57600080fd5b935060408601359250606086013567ffffffffffffffff8082111561096257600080fd5b818801915088601f83011261097657600080fd5b81358181111561098557600080fd5b8960208260051b850101111561099a57600080fd5b9699959850939650602001949392505050565b6000826109bc576109bc610a35565b500490565b60007fffffffffffffffffffffffffffffffffffffffffffffffffffffffffffffffff821415610a1a577f4e487b7100000000000000000000000000000000000000000000000000000000600052601160045260246000fd5b5060010190565b600082610a3057610a30610a35565b500690565b7f4e487b7100000000000000000000000000000000000000000000000000000000600052601260045260246000fd5b7f4e487b7100000000000000000000000000000000000000000000000000000000600052603260045260246000fdfea264697066735822122052095d468ccbe21aba9a6d3c28f8f4fba767702dd7ab4f84b66c3a8f8b99a0a964736f6c63430008060033",
  "devdoc": {
    "kind": "dev",
    "methods": {},
    "version": 1
  },
  "userdoc": {
    "kind": "user",
    "methods": {},
    "version": 1
  },
  "storageLayout": {
    "storage": [
      {
        "astId": 2502,
        "contract": "src/MerkleDistributor.sol:MerkleDistributor",
        "label": "claimedBitMap",
        "offset": 0,
        "slot": "0",
        "type": "t_mapping(t_uint256,t_uint256)"
      }
    ],
    "types": {
      "t_mapping(t_uint256,t_uint256)": {
        "encoding": "mapping",
        "key": "t_uint256",
        "label": "mapping(uint256 => uint256)",
        "numberOfBytes": "32",
        "value": "t_uint256"
      },
      "t_uint256": {
        "encoding": "inplace",
        "label": "uint256",
        "numberOfBytes": "32"
      }
    }
  }
}